:107800007BC00000AEC0000092C0000090C000002D
:107810008EC000008CC000008AC0000088C000003C
:1078200086C0000084C0000082C0000080C000004C
:107830007EC000007CC000007AC0000078C000005C
:1078400076C0000074C0000072C0000070C000006C
:107850006EC000006CC000006AC0000068C000007C
:1078600066C0000064C0000062C0000060C000008C
:107870005EC000005CC000005AC000000600FF09A6
:1078800001A101150026FF00750885019506090074
:10789000B20201850295830900B20201C0090222E9
:1078A000000101008032090400000103000000090A
:1078B0002101010001222100070581030800C812EF
:1078C00001100100000008C016DF050001010200E0
:1078D00001100348004900440042006F006F00742B
:1078E0000012036F0062006400650076002E0061E4
:1078F000007400040309040011241FBECFEFD8E078
:10790000DEBFCDBF11E0A0E0B1E0EAEFFEE702C0CC
:1079100005900D92AA30B107D9F711E0AAE0B1E0C5
:1079200001C01D92AB33B107E1F733D1E4C268CF98
:10793000A82FB92F80E090E041E050EA609530E058
:1079400009C02D9182279795879510F08427952758
:10795000305EC8F36F5FA8F30895EADF8D939D93BF
:107960000895CF93CFB7CF93DF93C3954B9BE9F7A0
:107970004B9B0BC04B9B09C04B9B07C04B9B05C04F
:107980004B9B03C04B9B01C08BC06F93C0911E01EA
:10799000DD27CB5DDE4F2F9365E54B9B03C02F9119
:1079A0006F91E6CF0F931F934F9320E040E15F93D9
:1079B00009B10C7003FB27F93F9350E03BE039C05D
:1079C0001C7040642F77012F5F5F1EC0406819B1A3
:1079D0001C702F7752501FC0406409B12F770C7074
:1079E000D1F15F5F00C023C0406219B12F771C70D6
:1079F00091F15F5F00C025C00C701027515012F448
:107A00005D5F0000115027952C3F19B1C8F61C701E
:107A10000127015027952C3FC8F64227499309B109
:107A20000C7010274F73115027952C3FA8F64695E0
:107A3000469519B11C7079F00127015027952C3F0C
:107A400098F66B5A60F3315009B1B0F600C011E0FE
:107A50001CBB002719C03B503195C31BD04011E01F
:107A60001CBB0881033C09F10B34F9F020911C0187
:107A70001981110F1213EDCF4A81441F093651F1BC
:107A80000D3211F0013E29F7009323013F915F91E0
:107A90004F911F910F912F916F91CCB3C0FD65CF86
:107AA000DF91CF91CFBFCF91189520912301222351
:107AB00069F310912101112349F534304AF13093D3
:107AC000210120931D0110911E013BE0311B3093D9
:107AD0001E011EC0009121010130C4F40AE54F705F
:107AE000A9F43091080134FD14C000930801C1E1EC
:107AF000D1E013C0052710E000C000000BB91AC088
:107B0000052710E0221F1DC010E021C04AE502C079
:107B100032ED432FC4E1D0E032E01AB11C605B9A31
:107B20000BB11AB95CE020E865E320FF05270BB92B
:107B3000279517951C3FF0F66695B8F7B1F720FF2B
:107B400005270BB9279517951C3FD0F62795179554
:107B500017FF052700001C3F0BB9B0F629913A9595
:107B600019F7037F10912201110FC651D0400BB9B4
:107B700011F010931C0111E01CBB08601AB1137FB7
:107B8000402F437F54E05A95F1F70BB91AB94BB91E
:107B90007DCF56985E9A8FE19EE40197F1F700C081
:107BA00000004E9B10C0F89481E180935700E89547
:107BB0001DBA1092690081E085BF15BEE0910A01EF
:107BC000F0910B01099581E085BF82E085BF80912E
:107BD0006900836080936900E89A539A80E0A895D1
:107BE000EFE9FFE03197F1F700C000008150B9F7ED
:107BF000539878944E99D7CF10E000E0A895309133
:107C000021014DEF430F47FD1CC180911E01ACE0E7
:107C1000B0E0A81BB109AB5DBE4F80911D018D3254
:107C200009F0BCC0483009F00AC183EC809311010F
:107C30008AE580930801109210019C91292F2076EB
:107C400011968C9111972223E1F0893079F41296E4
:107C50008C911297823031F410920D0197FD8AC0F9
:107C60002FEF8AC081E080930C018AC0813009F037
:107C700087C080E091E09093200180931F0127E06E
:107C800080C012969C91129710921A01811106C021
:107C900010921B018AE191E022E067C0853019F45F
:107CA0009093220154C0863009F04BC013968C91FA
:107CB0001397813019F48FEB98E71AC0823041F4A2
:107CC0008DE998E79093200180931F0122E235C04F
:107CD0008330F1F4911108C083EF98E7909320016D
:107CE00080931F0124E029C0913041F481EE98E790
:107CF0009093200180931F0122E11FC09230E1F494
:107D000081ED98E79093200180931F0120E115C039
:107D1000813241F48FEA98E79093200180931F010C
:107D200029E00BC0823241F48CE798E79093200160
:107D300080931F0121E201C020E080E480931001C4
:107D400020C0883079F0893031F4909324018AE1A1
:107D500091E020E00AC021E08A3009F020E08AE1C9
:107D600091E003C084E291E021E0909320018093B0
:107D70001F0107C016962C9180E8809310010BC05C
:107D800020E017968C911797811105C016968C915B
:107D9000821708F4282F2093070151C08091100109
:107DA00087FF4DC080910E0190910F0120910D0130
:107DB000211109C011968C91119712969C911297DE
:107DC000149649EF430F240F20930D01522F507842
:107DD000ED01282F2F77A1F0F8942991399161E0D6
:107DE000FC01090160935700E89511247894FC0187
:107DF0009C012E5F3F4FC901622F6F7761F014C065
:107E0000F89423E0FC0120935700E895789407B696
:107E100000FCFDCFE1CFF89465E060935700E89552
:107E2000789407B600FCFDCF642F6A0F6C13D1CF96
:107E300030930F0120930E015111109207011092FF
:107E400021018091080184FF40C0809107018F3F8C
:107E500009F43BC0C82F893008F0C8E08C1B809320
:107E600007018091110198E8892780931101CC23A3
:107E700001F1E0911F01F09120018091100186FF36
:107E80000BC082E191E0DC0124912D9331962C2FDF
:107E9000280F2A13F9CF09C082E191E0DC0121917A
:107EA0002D932C2F280F2A13FACFF0932001E09363
:107EB0001F016C2F82E191E050DDCC5FCC3019F0D6
:107EC0008FEF80930701C093080184E199B19C7002
:107ED00031F48150D9F71092220110921C01809147
:107EE0000C01882309F48ACE015009F087CE115085
:0A7EF00009F084CE58CEF894FFCFBD
:0A7EFA0001800000800000FF5A0024
:040000030000780081
:00000001FF
